:1001FA00C0F9A4B0999282F88090FF009096AFC09F
:05020A0089C78EC17FD1
:100154007FE87E031201DAA3E493F519F518F51785
:0B016400F516851915AB18AD17AF1686
:10016F00AE15E4FCEE30E704D2908002C290EE258B
:10017F00E0FEC291D2910CBC08EAE4FCEB30E7043C
:10018F00D2908002C290EB25E0FBC291D2910CBCC1
:10019F0008EAE4FCED30E704D2908002C290ED252E
:1001AF00E0FDC291D2910CBC08EAE4FCEF30E70409
:1001BF00D2908002C290EF25E0FFC291D2910CBC89
:0601CF0008EAD292C29280
:0101D5002207
:0401D6007FD07E0751
:1001DA00E4FDFCC3ED9FEC9E5015E4FBFA0BBB005B
:0F01EA00010AEB64FA4A70F50DBD00010C80E4C8
:0101F90022E3
:10000300E4F50AF50BF50CF50DF50EF50FF510F506
:10001300111201D690020E12015C1201D690020455
:1000230012015C1201D6E493F519F518F517A3E450
:10003300931201641201D6900204E493F519F518A2
:10004300A3E493F517900204E4931201641201D61A
:10005300E493FFF519A3E493F5188F17900204E4D2
:10006300931201641201D6A3E493F519900204E4F8
:10007300931201601201D612015C1201D69001FAAB
:1000830012015C1201541201541201541201541250
:1000930001541201541201541201541201547FE805
:1000A3007E031201DA0509E5097002050864F4709C
:1000B30004E50864017052F508F509050BE50B70BA
:1000C30002050A640A450A700CF50AF50B050DE5ED
:1000D3000D7002050CE50D640A450C700CF50CF56A
:1000E3000D050FE50F7002050EE50F640A450E704E
:1000F3000CF50EF50F0511E51170020510E51164FD
:100103000A45107004F510F51174FA2511F582747F
:10011300013510F583E493F51674FA250FF582740F
:1001230001350EF583E493F51774FA250DF5827402
:1001330001350CF583E493F51874FA250BF58274F5
:1001430001350AF583E493F519F5151201690200E7
:01015300A803
:0300000002020FEA
:0C020F00787FE4F6D8FD75811902000329
:00000001FF
