:040000000C9450000C
:13008C0000C0CFA4B0999282F880908883C6A1868EFF7FC5
:1400A000CFEFD0E1CDBFDEBFCE51D0400AEA08830024E3E11E
:1400B400F1E011E0E331F10711F00192FBCF0083ECE8F0E0E5
:1400C800A0E0B1E010E000E00BBFEF39F10721F0C895319624
:1400DC000D92F9CF0E94BF00FFCF0E940201442755270BC023
:1400F0006627772702C06F5F7F4F643FE1E07E07D0F34F5F19
:140104005F4F4017510790F30C9407010E94020144275527D3
:140118000BC06627772702C06F5F7F4F6A30E0E07E07D0F3DD
:14012C004F5F5F4F4017510790F30C9407010E940C01B80121
:1401400044275527CB01807890705C018038E0E09E0711F481
:14015400DD9A01C0DD98660F771FDE9805E010E0C0DFDE9A7D
:1401680005E010E0BCDF4F5F5F4F4830E0E05E072CF30C945B
:14017C0013018FEF8ABB22242BBA3CC080910001823119F49F
:14019000222420920001DF9800E213E0A4DF81E091E0E09150
:1401A4000001FF27E80FF91F00811127C4DF81E091E0E09172
:1401B8000001FF27E80FF91F00811127BADF81E091E0E09168
:1401CC000001FF27E80FF91F00811127B0DF81E091E0E0915E
:1401E0000001FF27E80FF91F00811127A6DFDF9A00E213E049
:1401F40078DF809100018F5F80930001C3CF08957A936A9353
:140208005A934A930895499159916991799108957A936A930C
:14021C005A934A93BA92AA920895A990B9904991599169919F
:040230007991089523
:00000001FF
